:020000040800F2
:10000000286E0020E15300083D5400083D540008CC
:100010003D5400083D5400083D5400080000000015
:100020000000000000000000000000003D54000837
:100030003D540008000000003D540008957300087E
:100040003D5400083D5400083D5400083D5400084C
:100050003D5400083D5400083D5400083D5400083C
:100060003D5400083D5400083D5400083D5400082C
:100070003D5400083D5400083D5400083D5400081C
:100080003D5400083D5400083D5400083D5400080C
:100090003D5400083D5400083D5400083D540008FC
:1000A0003D5400083D5400083D5400083D540008EC
:1000B0003D5400083D5400083D5400083D540008DC
:1000C0003D5400083D5400083D5400083D540008CC
:1000D0003D540008E59E00081D9F0008559F00083C
:1000E0003D5400083D5400083D5400083D540008AC
:1000F0003D5400083D5400083D5400083D5400089C
:100100003D5400083D5400083D5400083D5400088B
:100110003D5400083D5400083D5400083D5400087B
:100120003D5400083D5400083D5400083D5400086B
:100130003D5400083D5400083D5400083D5400085B
:100140003D5400083D5400083D5400083D5400084B
:100150003D5400083D5400083D5400088D9F0008A0
:100160003D5400083D5400083D5400083D5400082B
:100170003D540008E5D600083D5400083D540008F1
:100180003D5400083D5400083D5400083D5400080B
:100190003D5400083D5400083D5400083D540008FB
:1001A0003D5400083D5400083D54000880B483B01D
:1001B00000AF78607B68032B02D1234B00225A608A
:1001C000224B5B6A0A2B0DD8204B5B6A5A1E2049D2
:1001D00013469B0013449B000B4404331B681A4ACC
:1001E000136304E01A4BD3F8B830174A1363164B65
:1001F00000221A60144B0E229A60134B0B22DA6015
:10020000114B06221A61104B00225A610E4B00223C
:100210009A610D4B0022DA610B4B04221A620A4BE1
:1002200004225A62084B00229A62074B0022DA62CB
:10023000054B1E225A63044B00229A6300BF0C3701
:10024000BD4680BC704700BF645C0020785B002026
:100250002000002080B500AF9E4B1B6A012B4FD1C0
:100260009C4BDB69013B9B4AD361012000F04EF9B6
:10027000984BDB69002BB8BF5B42072B40F34281F0
:10028000944B0022DA61934B9B6A002B1CD1914B5B
:10029000DB68013B8F4AD3608E4B99688D4BDB68DE
:1002A0005A1E8D4813465B001344DB004FF43A722C
:1002B00002FB01F21344034408331B68012B16D1DF
:1002C000844B01229A6212E0824B9B6A012B06D179
:1002D000804B1D22DA607F4B02229A6207E07D4B41
:1002E00000229A627B4BDB68013B7A4AD36000F0C4
:1002F0007FF9784B5B6A774A136200F0CDF901E130
:10030000744B1B6A022B4FD1724B9B690133714AAC
:100310009361022000F0FAF86E4B9B69002BB8BF86
:100320005B42072B40F3EE806A4B00229A61694BD7
:100330009B6A002B1CD1674B9B680133654A936015
:10034000644B9B68591C634BDA68634813465B0037
:100350001344DB004FF43A7202FB01F213440344EE
:1003600008331B68012B16D15A4B03229A6212E004
:10037000584B9B6A032B06D1564B01229A60554B72
:1003800004229A6207E0534B00229A62514B9B6809
:100390000133504A936000F02BF94E4B5B6A4D4A93
:1003A000136200F079F9ADE04A4B1B6A032B4FD181
:1003B000484BDB690133474AD361032000F0A6F8BC
:1003C000444BDB69002BB8BF5B42072B40F39A809C
:1003D000404B0022DA613F4B9B6A002B1CD13D4B06
:1003E000DB6801333B4AD3603A4B9968394BDB6891
:1003F0005A1C394813465B001344DB004FF43A7231
:1004000002FB01F21344034408331B68012B16D18D
:10041000304B05229A6212E02E4B9B6A052B06D1C7
:100420002C4B0122DA602B4B06229A6207E0294B03
:1004300000229A62274BDB680133264AD36000F022
:10044000D7F8244B5B6A234A136200F025F959E080
:10045000204B1B6A042B52D11E4B9B69013B1D4A4A
:100460009361042000F052F81A4B9B69002BB8BF2F
:100470005B42072B46DD174B00229A61154B9B6AA6
:10048000002B1CD1134B9B68013B124A9360114B0C
:100490009B68591E0F4BDA680F4813465B001344E4
:1004A000DB004FF43A7202FB01F2134403440833B9
:1004B0001B68012B1AD1074B07229A6216E0054BE5
:1004C0009B6A072B0AD1034B1A229A60014B082220
:1004D0009A620BE0645C0020AC0900200A4B002209
:1004E0009A62094B9B68013B074A936000F080F8D1
:1004F000054B5B6A044A136200F0CEF802E0024B3F
:1005000000225A6280BD00BF645C002080B483B0CA
:1005100000AF7860344B5B690133334A5361324B2F
:100520005B69072B02D9304B00225A612E4B1B68A6
:10053000012B03D12C4B0A221A6151E07B68012B5D
:100540000BD1294B5B69032B03D8274B01221A617E
:100550002FE0254B00221A612BE07B68022B0BD188
:10056000214B5B69032B03D81F4B03221A6120E048
:100570001D4B02221A611CE07B68032B0BD11A4B26
:100580005B69032B03D8184B05221A6111E0164B47
:1005900004221A610DE07B68042B0AD1124B5B69BF
:1005A000032B03D8104B07221A6102E00E4B0622E0
:1005B0001A610E4B1B69012B12D10C4B5B69142B7A
:1005C00003D9094B08221A610AE0074B5B69032B28
:1005D00003D8054B09221A6102E0034B08221A6175
:1005E0000C37BD4680BC7047645C002024090020A5
:1005F00080B485B000AF244B9B68FB60224BDB6866
:10060000BB60224B1B68012B1FD11F4B1B68002BAB
:100610001BD11F4B5B687B601D4B9B683B60FA687E
:100620007B689A4211D1BA683B689A420DD1174B48
:100630001B69002B03D1164B02221A6002E0124BF9
:1006400001221A60134B03221A600F4B1B68012B07
:1006500014D1FB680E2B11D1BB680E2B0ED10A4BA7
:1006600000221A60084B00221A61074B01221A620D
:10067000054B01225A62044B0022DA6200BF143794
:10068000BD4680BC704700BF645C00202409002088
:10069000785B00205809002080B584B000AF0023AB
:1006A000FB60914B9B68BB608F4BDB687B608E4B24
:1006B0001B6A002B03D18C4B00225A62F9E18A4B52
:1006C0001B6A012B02D17B68013B7B60864B1B6A56
:1006D000022B02D1BB680133BB60834B1B6A032B27
:1006E00002D17B6801337B607F4B1B6A042B02D1F4
:1006F000BB68013BBB607D487A68B96813465B0004
:100700001344DB004FF43A7202FB01F2134403443A
:100710000C331B6803F00103002B02D0FB6801338C
:10072000FB6072487A68B96813465B001344DB00CB
:100730004FF43A7202FB01F2134403440C331B687A
:1007400003F00203002B02D0FB680133FB60674813
:100750007A68B96813465B001344DB004FF43A72C1
:1007600002FB01F2134403440C331B6803F004033F
:10077000002B02D0FB680133FB605C487A68B968E3
:1007800013465B001344DB004FF43A7202FB01F2A4
:10079000134403440C331B6803F00803002B02D0FE
:1007A000FB680133FB60504B1B68012B12D14F4893
:1007B0007A68B96813465B001344DB004FF43A7261
:1007C00002FB01F21344034408331B68022B01D1DE
:1007D0000223FB60FB68002B03D1434B00225A62CB
:1007E00067E1FB68012B59D140487A68B968134624
:1007F0005B001344DB004FF43A7202FB01F2134436
:1008000003440C331B6803F00103002B02D0364B6A
:1008100001225A6235487A68B96813465B0013446E
:10082000DB004FF43A7202FB01F2134403440C3331
:100830001B6803F00203002B02D02B4B02225A62EA
:100840002A487A68B96813465B001344DB004FF40A
:100850003A7202FB01F2134403440C331B6803F0A9
:100860000403002B02D0204B03225A621F487A68EF
:10087000B96813465B001344DB004FF43A7202FB85
:1008800001F2134403440C331B6803F00803002BEC
:1008900000F00F81144B04225A620AE1124B9B6B49
:1008A000012B25D1104B00229A630F4B1B6A012BA1
:1008B00002D10D4B03225A620B4B1B6A022B02D151
:1008C000094B04225A62084B1B6A032B02D1064BC8
:1008D00001225A62044B1B6A042B40F0E780024B52
:1008E00002225A62E2E000BF645C0020AC090020F2
:1008F000714B1B68012B74D170487A68B968134634
:100900005B001344DB004FF43A7202FB01F2134424
:10091000034408331B68022B58D168487A68B968C9
:1009200013465B001344DB004FF43A7202FB01F202
:10093000134403440C331B6803F01003002B02D054
:100940005D4B01225A625D487A68B96813465B00C4
:100950001344DB004FF43A7202FB01F213440344E8
:100960000C331B6803F02003002B02D0524B0222F1
:100970005A6252487A68B96813465B001344DB0038
:100980004FF43A7202FB01F2134403440C331B6828
:1009900003F04003002B02D0474B03225A62474822
:1009A0007A68B96813465B001344DB004FF43A726F
:1009B00002FB01F2134403440C331B6803F0800371
:1009C000002B75D03C4B04225A6271E03A4B1B6AF3
:1009D0007A68B968002002F0ADFA0246364B5A62D6
:1009E00066E0374B1B69012B0AD1334B1B6A1A4651
:1009F0007968B86802F0B4F802462F4B5A6258E0A2
:100A00002F4B9B68012B46D12B4B5B68002B0AD1E7
:100A1000294B1B6A1A467968B86802F0A1F80246A9
:100A2000254B5A6245E0244B5B68012B0AD1224BCF
:100A30001B6A1A467968B86802F024F902461E4B10
:100A40005A6236E01C4B5B68022B0AD11A4B1B6AB8
:100A50001A467968B86802F033F90246164B5A62B2
:100A600027E0154B5B68032B0AD1134B1B6A1A4610
:100A70007968B86802F09AF902460F4B5A6218E09A
:100A80000D4B1B6A7A68B968002002F01DFA024615
:100A9000094B5A620DE0084B1B6A7A68B96800205E
:100AA00002F07CFA0246044B5A6202E000BF00E00A
:100AB00000BF1037BD4680BD645C0020AC0900203B
:100AC0002409002080B483B000AF78607B68032BDA
:100AD00002D1234B00225A60224B5B6A0A2B0DD8AD
:100AE000204B5B6A5A1E204913469B0013449B000F
:100AF0000B440C331B681A4A136304E01A4BD3F8F7
:100B0000C030174A1363164B00221A60144B0C2294
:100B10009A60134B0E22DA60114B02221A61104BBD
:100B200000225A610E4B6FF002029A610C4B0022B8
:100B3000DA610B4B02221A62094B02225A62084BFD
:100B400000229A62064B0022DA62054B1E225A638B
:100B5000034B00229A6300BF0C37BD4680BC704730
:100B6000245C0020785B00202000002080B500AFCE
:100B7000A14BDB6A092B40F258819F4B1B6A012B6A
:100B80004FD19D4BDB69013B9B4AD361012000F0B3
:100B900051F9994BDB69002BB8BF5B42072B40F33F
:100BA0004581954B0022DA61934B9B6A002B1CD147
:100BB000914BDB68013B904AD3608F4B99688E4B19
:100BC000DB685A1E8D4813465B001344DB004FF46C
:100BD0003A7202FB01F21344034408331B68012BF1
:100BE00016D1854B01229A6212E0834B9B6A012B3E
:100BF00006D1814B1D22DA607F4B02229A6207E008
:100C00007D4B00229A627C4BDB68013B7A4AD360C1
:100C100000F082F9784B5B6A774A136200F0D6F9EC
:100C200004E1754B1B6A022B4FD1734B9B69013357
:100C3000714A9361022000F0FDF86F4B9B69002B15
:100C4000B8BF5B42072B40F3F1806B4B00229A61E7
:100C5000694B9B6A002B1CD1674B9B680133664A2A
:100C60009360654B9B68591C634BDA686348134675
:100C70005B001344DB004FF43A7202FB01F21344B1
:100C8000034408331B68012B16D15B4B03229A6285
:100C900012E0594B9B6A032B06D1574B01229A60F5
:100CA000554B04229A6207E0534B00229A62524B42
:100CB0009B680133504A936000F02EF94E4B5B6AFB
:100CC0004D4A136200F082F9B0E04B4B1B6A032BD4
:100CD0004FD1494BDB690133474AD361032000F010
:100CE000A9F8454BDB69002BB8BF5B42072B40F3EB
:100CF0009D80414B0022DA613F4B9B6A002B1CD147
:100D00003D4BDB6801333C4AD3603B4B99683A4B1F
:100D1000DB685A1C394813465B001344DB004FF470
:100D20003A7202FB01F21344034408331B68012B9F
:100D300016D1314B05229A6212E02F4B9B6A052B8C
:100D400006D12D4B0122DA602B4B06229A6207E076
:100D5000294B00229A62284BDB680133264AD36074
:100D600000F0DAF8244B5B6A234A136200F02EF994
:100D70005CE0214B1B6A042B53D11F4B9B69013B49
:100D80001D4A9361042000F055F81B4B9B69002B12
:100D9000B8BF5B42072B49DD174B00229A61164B07
:100DA0009B6A002B1CD1144B9B68013B124A936039
:100DB000114B9B68591E104BDA68104813465B00B4
:100DC0001344DB004FF43A7202FB01F21344034474
:100DD00008331B68012B1BD1074B07229A6217E0CF
:100DE000054B9B6A072B0BD1034B1A229A60024BCF
:100DF00008229A620CE000BF245C0020AC090020AD
:100E00000B4B00229A620A4B9B68013B084A936095
:100E100000F082F8064B5B6A054A136200F0D6F8D0
:100E200004E0034B00225A6200E000BF80BD00BF17
:100E3000245C002080B483B000AF7860344B5B69E1
:100E40000133334A5361324B5B69072B02D9304B74
:100E500000225A612E4B1B68012B03D12C4B0A2216
:100E60001A6151E07B68012B0BD1294B5B69032B85
:100E700003D8274B01221A612FE0254B00221A616B
:100E80002BE07B68022B0BD1214B5B69032B03D832
:100E90001F4B03221A6120E01D4B02221A611CE045
:100EA0007B68032B0BD11A4B5B69032B03D8184BC0
:100EB00005221A6111E0164B04221A610DE07B68CD
:100EC000042B0AD1124B5B69032B03D8104B07226A
:100ED0001A6102E00E4B06221A610E4B1B69012BB0
:100EE00012D10C4B5B69142B03D9094B08221A61F0
:100EF0000AE0074B5B69032B03D8054B09221A61F3
:100F000002E0034B08221A610C37BD4680BC7047D3
:100F1000245C00202409002080B485B000AF274B5A
:100F20009B68FB60254BDB68BB60254B1B68012B76
:100F30001FD1224B1B68002B1BD1224B5B687B60AF
:100F4000204B9B683B60FA687B689A4211D1BA6873
:100F50003B689A420DD11A4B1B69002B03D1194BE8
:100F600002221A6002E0154B01221A60164B03227E
:100F70001A60124B1B68012B1BD1FB680C2B18D17C
:100F8000BB680E2B15D10D4B00221A600B4B0222B1
:100F90001A610A4B6FF002029A61084B0022DA6173
:100FA000064B02221A62054B02225A62034B0022B0
:100FB000DA6200BF1437BD4680BC7047245C002055
:100FC00024090020785B00205809002080B584B0F7
:100FD00000AF0023FB60914B9B68BB608F4BDB68CD
:100FE0007B608E4B1B6A002B03D18C4B00225A6214
:100FF000F9E18A4B1B6A012B02D17B68013B7B60C4
:10100000864B1B6A022B02D1BB680133BB60834B4A
:101010001B6A032B02D17B6801337B607F4B1B6A09
:10102000042B02D1BB68013BBB607D487A68B9687C
:1010300013465B001344DB004FF43A7202FB01F2EB
:10104000134403440C331B6803F00103002B02D04C
:10105000FB680133FB6072487A68B96813465B002D
:101060001344DB004FF43A7202FB01F213440344D1
:101070000C331B6803F00203002B02D0FB68013322
:10108000FB6067487A68B96813465B001344DB006D
:101090004FF43A7202FB01F2134403440C331B6811
:1010A00003F00403002B02D0FB680133FB605C48B3
:1010B0007A68B96813465B001344DB004FF43A7258
:1010C00002FB01F2134403440C331B6803F00803D2
:1010D000002B02D0FB680133FB60504B1B68012BD7
:1010E00012D14F487A68B96813465B001344DB009D
:1010F0004FF43A7202FB01F21344034408331B68B5
:10110000022B01D10223FB60FB68002B03D1434B70
:1011100000225A6267E1FB68012B59D140487A6886
:10112000B96813465B001344DB004FF43A7202FBCC
:1011300001F2134403440C331B6803F00103002B3A
:1011400002D0364B01225A6235487A68B968134694
:101150005B001344DB004FF43A7202FB01F21344CC
:1011600003440C331B6803F00203002B02D02B4B0B
:1011700002225A622A487A68B96813465B0013440F
:10118000DB004FF43A7202FB01F2134403440C33C8
:101190001B6803F00403002B02D0204B03225A6289
:1011A0001F487A68B96813465B001344DB004FF4AC
:1011B0003A7202FB01F2134403440C331B6803F040
:1011C0000803002B00F00F81144B04225A620AE13D
:1011D000124B9B6B012B25D1104B00229A630F4BB6
:1011E0001B6A012B02D10D4B03225A620B4B1B6A67
:1011F000022B02D1094B04225A62084B1B6A032BB3
:1012000002D1064B01225A62044B1B6A042B40F0A8
:10121000E780024B02225A62E2E000BF245C002019
:10122000AC090020714B1B68012B74D170487A689F
:10123000B96813465B001344DB004FF43A7202FBBB
:1012400001F21344034408331B68022B58D1684849
:101250007A68B96813465B001344DB004FF43A72B6
:1012600002FB01F2134403440C331B6803F4805364
:10127000002B02D05D4B01225A625D487A68B96842
:1012800013465B001344DB004FF43A7202FB01F299
:10129000134403440C331B6803F40053002B02D0A7
:1012A000524B02225A6252487A68B96813465B0070
:1012B0001344DB004FF43A7202FB01F2134403447F
:1012C0000C331B6803F48043002B02D0474B0322EE
:1012D0005A6247487A68B96813465B001344DB00DA
:1012E0004FF43A7202FB01F2134403440C331B68BF
:1012F00003F40043002B75D03C4B04225A6271E08A
:101300003A4B1B6A7A68B968022001F013FE024664
:10131000364B5A6266E0374B1B69012B0AD1334BBF
:101320001B6A1A467968B86801F01AFC02462F4B0E
:101330005A6258E02F4B9B68012B46D12B4B5B68C0
:10134000002B0AD1294B1B6A1A467968B86801F04C
:1013500007FC0246254B5A6245E0244B5B68012B93
:101360000AD1224B1B6A1A467968B86801F08AFCD8
:1013700002461E4B5A6236E01C4B5B68022B0AD1B8
:101380001A4B1B6A1A467968B86801F099FC024644
:10139000164B5A6227E0154B5B68032B0AD1134B9F
:1013A0001B6A1A467968B86801F000FD02460F4BC7
:1013B0005A6218E00D4B1B6A7A68B968022001F086
:1013C00083FD0246094B5A620DE0084B1B6A7A689E
:1013D000B968022001F0E2FD0246044B5A6202E0C5
:1013E00000BF00E000BF1037BD4680BD245C002078
:1013F000AC0900202409002080B485B000AF7860DB
:101400000023FB607B68DB684FF0FF325A607B682B
:10141000DB686FF080425A61FB7B43F08003FB7313
:101420007B7B43F008037B737B68DB68FA689A6117
:1014300000BF1437BD4680BC704700BF80B586B082
:1014400000AF78600023FB7400237B610023FB6006
:1014500003200CF015F97B68DB681B69FB607B6976
:1014600001337B617B69184A934201D9002326E04E
:10147000FB68C3F3C073DBB2002BE9D000237B61B0
:10148000FB6843F00103FB607B68DB68FA681A6164
:101490007B68DB681B69FB607B6901337B617B696F
:1014A000094A934206D8FB68C3F30003DBB2012B61
:1014B000EED000E000BF03200CF0E2F8FB7C184601
:1014C0001837BD4680BD00BF400D030080B489B011
:1014D00000AFF860B96011461A460B46FB7113461F
:1014E000BB800023FB76FB68DB78002B22D1002336
:1014F0007B610023FB61BB880333002B00DA0333DD
:101500009B107B61FB79FA6832339B0013449B6824
:101510003B610023FB6109E0BB681A683B691A6004
:10152000FB690133FB61BB680433BB60FA697B690B
:101530009A42F1D3FB7E18462437BD4680BC7047E3
:1015400080B489B000AFF860B9601346FB80002317
:10155000FB61FB880333002B00DA03339B10BB6174
:10156000FB68D3F8D0307B610023FB6109E07B6925
:101570001A68BB681A60FB690133FB61BB680433FE
:10158000BB60FA69BB699A42F1D3BB68184624373D
:10159000BD4680BC704700BF80B487B000AF7860A4
:1015A0000B46FB7000233B610023FB737B6800222A
:1015B000DA707B6801229A707B6840229A80FB78FF
:1015C000012B13D14FF0A0433B617B680122DA72FB
:1015D0007B6808221A707B6804225A707B684FF47B
:1015E000A072DA807B6802221A7217E0FB78002B67
:1015F00014D1484B3B617B680022DA727B680C2275
:101600001A707B6806225A707B684FF4A062DA80F9
:101610007B6802221A727B680122DA703A697B6861
:10162000DA603B6903F500631A467B681A610023A0
:101630007B611CE07B695A013B69134403F510632D
:1016400019467A687B6904339B00134499607B696F
:101650005A013B69134403F5306319467A687B6984
:1016600014339B00134459607B6901337B617B68B1
:101670005B781A467B699A42DCD83B6903F5806344
:101680001A467B685A613B6903F588631A467B6892
:10169000C3F8CC2000237B610FE07B695A013B69D2
:1016A000134403F5A06319467A687B6922339B00D3
:1016B000134499607B6901337B617B681B781A4610
:1016C0007B699A42E9D800237B610FE07B691A03AA
:1016D0003B69134403F5805319467A687B693233BA
:1016E0009B00134499607B6901337B617B681B78A5
:1016F0001A467B699A42E9D83B6903F560631A464A
:101700007B68C3F80C21FB7B18461C37BD4680BCA8
:10171000704700BF0000044080B586B000AF78601D
:101720000023FB7500233B610023FB600023BB60AB
:101730007B681B7A012B46D17B68DB689B6BFB6067
:10174000BB7B6FF30003BB737B685B7A002B03D01A
:10175000BB7B43F01003BB737B68DB68FA689A635A
:1017600000233B617B68DB68DB683B613B7C6FF39C
:1017700086133B74BB7C43F01003BB74BB7C6FF3DC
:101780008613BB74BB7C6FF34103BB74BB7C6FF3EC
:10179000C303BB747B68DB683A69DA607868FFF77B
:1017A0004DFE7B68DB78012B3DD13B7A052262F34D
:1017B00044033B723B7A43F020033B727B68DB6857
:1017C000BA689A602FE07B68DB68DB683B613B7C32
:1017D00043F040033B747B68DB683A69DA60786801
:1017E000FFF72CFE0023FB60BB7B43F00103BB73C0
:1017F000BB7B43F00403BB73BB7B43F00803BB73A9
:10180000BB7B43F02003BB737B685B7A002B03D068
:10181000BB7B43F01003BB737B68DB68FA689A6399
:1018200014200BF04FFF7B68DB78012B10D17B6815
:10183000DB689B68BB603B7A052262F344033B7222
:101840003B7A43F020033B727B68DB68BA689A609E
:10185000FB7D18461837BD4680BD00BF80B485B0FB
:1018600000AF78600023FB730023BB603B7A43F03A
:1018700001033B727B68DB687A68D2689168BA685A
:101880000A439A60FB7B18461437BD4680BC7047FC
:1018900080B485B000AF78600023FB730023BB6089
:1018A0003B7A43F001033B727B68DB687A68D2685D
:1018B0009168BA68D2430A409A60FB7B1846143795
:1018C000BD4680BC704700BF80B586B000AF786071
:1018D00039600023FB7400237B610023FB60FB68FD
:1018E00043F02003FB603B68DBB203F01F03DAB276
:1018F000FB6862F38A13FB607B68DB68FA681A6135
:101900007B68DB681B69FB607B6901337B617B69FA
:10191000094A934206D8FB68C3F34013DBB2012B9C
:10192000EED000E000BF03200BF0AAFEFB7C1846BF
:101930001837BD4680BD00BF400D030080B586B09E
:1019400000AF78600023FB7400237B610023FB6001
:10195000FB6843F01003FB607B68DB68FA681A6180
:101960007B68DB681B69FB607B6901337B617B699A
:10197000094A934206D8FB68C3F30013DBB2012B7C
:10198000EED000E000BF03200BF07AFEFB7C18468F
:101990001837BD4680BD00BF400D030080B584B040
:1019A00000AF78600B46FB700023FB737B68DB683D
:1019B000DB68BB60FB7A6FF34513FB72FB7A6FF356
:1019C0008613FB72FB78012B04D1FB7A43F02003D2
:1019D000FB7206E0FB78002B03D1FB7A43F0400357
:1019E000FB727B68DB68BA68DA6032200BF06AFE53
:1019F000FB7B18461037BD4680BD00BF80B483B066
:101A000000AF78607B68DB685B6903F00103184610
:101A10000C37BD4680BC704780B582B000AF78609F
:101A20007868FFF7EBFF0346012B0CBF012300236F
:101A3000DBB218460837BD4680BD00BF80B485B014
:101A400000AF78600023FB607B68DB685B69FB604C
:101A50007B68DB689B69FA681340FB60FB6818468B
:101A60001437BD4680BC704780B588B000AF786041
:101A70000023FB760023FB6100237B6100233B6195
:101A80000023FB6078680BF0D5FD7B68D3F80C3140
:101A900000221A607B681B7A012B04D10021786830
:101AA00000F0F4F803E00121786800F0EFF87868BE
:101AB00000F034F97B685B691B68FB603B7B6FF36C
:101AC00082033B737B685B69FA681A607B68DB7A28
:101AD000002B19D17B68DB684FF400725A624FF417
:101AE0000073BB824FF48073FB827B68DB687A698A
:101AF0009A624FF440733B824FF480737B827B6821
:101B0000DB683A69C3F8002110217868FFF7DCFE32
:101B10007868FFF713FF0023FB6113E07A68FB6925
:101B200022339B0013449B684FF0FF329A607A681F
:101B3000FB6922339B0013449B680022DA60FB6937
:101B40000133FB617B681B781A46FB699A42E5D832
:101B50000121786800F01CF8786800F057F8FB7EE7
:101B600018462037BD4680BD80B483B000AF786092
:101B70007B685B699B6803F00103002B0CBF0123AA
:101B80000023DBB218460C37BD4680BC704700BF4F
:101B900080B584B000AF78600B46FB700023FB601B
:101BA000FB78194678680BF02DFD786800F08AF80C
:101BB0000346FB607B7B03F01003DBB2002B0BD1F1
:101BC000FB78012B08D17B7B43F010037B737B6890
:101BD000D3F8CC30FA681A607B7B03F01003DBB2D9
:101BE000002B0BD0FB78002B08D17B7B6FF3041309
:101BF0007B737B68D3F8CC30FA681A60C8200BF08E
:101C000061FD00BF1037BD4680BD00BF80B584B008
:101C100000AF78600023FB730023BB607B68DB6848
:101C200000229A617B68DB684FF0FF325A61786866
:101C3000FFF7E2FB7B68DB78002B03D13B7A43F0B4
:101C400010033B72FB7A43F00103FB72FB7A43F013
:101C50000203FB72FB7A43F02003FB723B7A43F0F2
:101C600008033B72BB7A43F02003BB727B68DB68DE
:101C70007A68D2689169BA68D2431140BA680A4357
:101C80009A61FB7B18461037BD4680BD80B485B095
:101C900000AF78600B46FB707B685B691B68FB607C
:101CA000FB7803F00303DAB23B7B62F301033B737F
:101CB0007B685B69FA681A6000BF1437BD4680BC58
:101CC000704700BF80B485B000AF78607B68D3F800
:101CD000CC301B68FB603B7B6FF382033B733B7B29
:101CE0006FF341033B733B7B6FF3C3033B733B7B5E
:101CF0006FF345133B73FB6818461437BD4680BC31
:101D0000704700BF80B483B000AF78607B685B69C8
:101D10005B6918460C37BD4680BC704780B584B0FF
:101D200000AF78607868FFF7CDFF0346FB607B7BF0
:101D300043F001037B737B68D3F8CC30FA681A60F8
:101D40000A200BF0BFFC7B7B6FF300037B737B6887
:101D5000D3F8CC30FA681A6014200BF0B3FC0123DE
:101D600018461037BD4680BD80B489B000AF78609A
:101D70000B46FB700023FB770023BB6100233B6114
:101D800000237B610023FB604FF0FF33BB60FB78D7
:101D90007A6822339B0013449B68BA689A600023D8
:101DA0007B617B68DB78012B03D13B7D43F004032F
:101DB0003B75FB787A685B01134403F2B1331B78FF
:101DC000032B00F2888001A252F823F0DD1D0008E9
:101DD000911E0008DD1D0008451E00083B7D43F0F4
:101DE00001033B753B7D43F008033B753B7D43F0AE
:101DF00080033B757B7D43F004037B753B7D43F0A3
:101E000010033B75FB787A685B01134403F2AE3331
:101E10001B78002B04D07B7D43F001037B7555E0DC
:101E20003B7D43F040033B75FB787A685B011344CC
:101E300003F56C731B78002B48D03B7D43F02003E7
:101E40003B7543E03B7D43F001033B753B7D43F035
:101E500010033B753B7D43F008033B753B7D43F02E
:101E600080033B757B7D43F004037B757B7D43F0F2
:101E700002037B75FB787A685B01134403F2AE338F
:101E80001B78002B24D07B7D43F001037B751FE082
:101E90003B7D43F001033B757B7D43F002037B7583
:101EA0003B7D43F020033B75FB787A685B0113446C
:101EB00003F2AE331B78002B0CD03B7D43F0800344
:101EC0003B757B7D43F001037B7503E000BF02E0BF
:101ED00000BF00E000BFFB787A6822339B00134408
:101EE0009B687A69DA60FB78012202FA03F3BB612E
:101EF0007B685B697A6852699169BA690A439A6139
:101F0000FB7C43F00203FB747B68DB687A68D26871
:101F100091693A690A439A610023FB60FB787A6809
:101F20005B01134403F56B731B7803F07F03DAB294
:101F3000FB8962F38C13FB81FB787A685B011344A5
:101F400003F2AD331B7803F00F03DAB27B7B62F34D
:101F5000C6037B73FB787A685B01134403F2AE33EC
:101F60001B7803F00103DAB27B7B62F3C7137B7348
:101F7000FB787A685B01134403F2AF331B78022BC2
:101F80000CBF01230023DAB2BB7B62F34103BB73B6
:101F9000FB787A685B01134403F2B1331B7803F0DA
:101FA0000303DAB2BB7B62F38303BB73FB787A680B
:101FB0005B01134403F2B2331B88C3F30A039AB2E2
:101FC000BB8962F30A03BB81FB787A685B01134427
:101FD00003F2B1331B78032B03D1FB7B43F02003C7
:101FE000FB73FB787A6822339B0013449B68FA6882
:101FF0001A60FB7F18462437BD4680BC704700BF7F
:1020000080B58CB000AF78600B46FB70002387F87A
:102010002D3000237B854FF480733B8500233B628A
:1020200000237B620023BB60FB787A685B0113446A
:1020300003F56F731B68002B32D0FB787A685B0165
:10204000134403F56F731B68FA78796852010A44E8
:1020500002F2B23212881344013BFA7879685201D5
:102060000A4402F2B2321288B3FBF2F3FB85FA8D16
:102070003B8D9A4216D93B8DFB85FB78FA8DF9781A
:1020800078684901014401F2B231098801FB02F28A
:1020900011467A685B01134403F56F73196001E020
:1020A0000123FB85FB787A685B01134403F2AE33AE
:1020B0001B78002B11D0FB78FA8DF97878684901EC
:1020C000014401F2B231098801FB02F211467A683B
:1020D0005B01134403F56F731960FB787A685B0149
:1020E000134403F56F731B68C3F312023B6A62F378
:1020F00012033B62FB8DC3F309039AB27B8C62F33C
:10210000CC037B84FB787A6815335B01134403F5B9
:102110008A731B7803F00303DAB297F8233062F373
:10212000461387F82330FB787A6822339B001344E8
:102130009B683A6A1A617B68DB78012B0ED1FB78C9
:102140007A6822339B0013449B68FA7879681532C9
:1021500052010A4402F58C7212685A61FB787A685F
:1021600022339B0013449B681B687B627868FFF7EF
:10217000FBFC034603F00103DAB297F8273062F361
:10218000451387F8273097F8273043F0800387F806
:10219000273097F827306FF3861387F82730FB78BE
:1021A0007A6822339B0013449B687A6A1A607B68C2
:1021B000DB78002B7DD1FB787A685B01134403F256
:1021C000AE331B78002B74D1FB787A685B01134423
:1021D00003F56F731B68002B6BD0FB787A685B018B
:1021E000134403F2B1331B78032B49D801A252F8F0
:1021F00023F000BF05220008432200080522000842
:10220000432200087B68DB68DB6A7B61FB787A68C5
:102210005B01134403F56F731B6803339B087B85D5
:10222000BB8A7A8D9A422DD93B7A43F020033B72C8
:102230007B68DB687A68D2689169BA680A439A61F8
:1022400020E07B685B691B69FB60FB787A685B0157
:10225000134403F56F731B6803339B087B85BB89AD
:102260007A8D9A4210D9FB7A43F00403FB727B68A3
:10227000DB687A68D2689169BA680A439A6103E0B8
:1022800000BF02E000BF00E000BFFB787A681533B2
:102290005B01134403F58C731968FB787A685B0162
:1022A000134403F56F731B689BB2FA787868FFF7E5
:1022B0000DF997F82D3018463037BD4680BD00BF68
:1022C00080B48BB000AF78600B46FB70002387F8BA
:1022D00027300023BB6100233B61FB787A682233FF
:1022E0009B0013449B681B68FB60FB7B43F08003EF
:1022F000FB73FB7B43F04003FB73BB7B03F00C03DE
:10230000DBB2002B05D0BB7B03F00C03DBB2082B48
:102310000BD17B68DB68DB6ABB61BB7E002B0FD116
:10232000FB7B6FF3C713FB730AE07B685B691B6978
:102330003B61BB7C002B03D1FB7B6FF3C713FB73AB
:10234000FB787A6822339B0013449B68FA681A6012
:1023500097F8273018462C37BD4680BC704700BF21
:1023600080B487B000AF78600B46FB700023FB752C
:102370000023FB60FB7B43F08003FB73FB8901229E
:1023800062F3CC03FB81FB787A6822339B00134411
:102390009B68FA681A61FB787A6822339B001344C1
:1023A0009B681B683B61FB7C43F08003FB74FB7CF8
:1023B0006FF38613FB74FB787A6822339B00134417
:1023C0009B683A691A60FB7D18461C37BD4680BC85
:1023D000704700BF80B582B000AF0023FB711D4B7A
:1023E0001B78002B07D01B4B1B78012B01D101233D
:1023F0002BE0002329E000F053F800F05DF9002005
:1024000000F03CF80346BB8045F63C21002000F07C
:1024100023F8002000F032F803467B80BB88194681
:10242000002000F019F87B8845F63C22934201D148
:102430000123FB71FB79012B03D1064B01221A709A
:1024400002E0044B02221A70FB7918460837BD4699
:1024500080BD00BFA406002080B483B000AF7860C8
:102460000B467B807B6803F150431A467B881380C0
:1024700000BF0C37BD4680BC704700BF80B485B03C
:1024800000AF78600023FB817B6803F150431B8819
:10249000FB81FB8918461437BD4680BC704700BFDE
:1024A00080B582B000AF01217E2004F027F802231E
:1024B0003B7102237B710023BB710023FB710C2253
:1024C000052177480AF010FB0C22062174480AF017
:1024D0000BFB60233B603B46194671480AF05AFAF1
:1024E0000C2200216F480AF0FFFA01233B603B46B3
:1024F00019466C480AF04EFA0C2200216A480AF08C
:10250000F3FA0C22012168480AF0EEFA0C220821A5
:1025100065480AF0E9FA0C22092163480AF0E4FA56
:102520000C220A2160480AF0DFFA0C220E215E48D4
:102530000AF0DAFA0C220F215B480AF0D5FA4CF2C5
:1025400003733B603B46194657480AF023FA0C22B6
:10255000002156480AF0C8FA0C22012153480AF01B
:10256000C3FA0C22072151480AF0BEFA0C220821B6
:102570004E480AF0B9FA0C2209214C480AF0B4FA84
:102580000C220A2149480AF0AFFA0C220B214748D5
:102590000AF0AAFA0C220C2144480AF0A5FA0C22EF
:1025A0000D2142480AF0A0FA0C220E213F480AF001
:1025B0009BFA0C220F213D480AF096FA4FF68373DE
:1025C0003B603B46194639480AF0E4F90C220021E9
:1025D00037480AF089FA0C22012135480AF084FABA
:1025E0000C22022132480AF07FFA0C2203213048E3
:1025F0000AF07AFA0C2204212D480AF075FA0C220E
:1026000005212B480AF070FA0C220B2128480AF009
:102610006BFA0C220C2126480AF066FA0C220D21D6
:1026200023480AF061FA0C220E2121480AF05CFAD4
:102630000C220F211E480AF057FA4FF63F033B6069
:102640003B4619461A480AF0A5F90C220021194800
:102650000AF04AFA0C22012116480AF045FA0C2227
:10266000042114480AF040FA0C22052111480AF00E
:102670003BFA0C2208210F480AF036FA0C220F21EF
:102680000C480AF031FA48F233133B603B461946D6
:1026900008480AF07FF900BF0837BD4680BD00BF7B
:1026A0000004024000080240000C024000100240FA
:1026B000001402400018024080B592B000AF012122
:1026C000012003F039FF02233B6007237B600423D2
:1026D000BB600723FB6002233B6102237B61022373
:1026E000BB610123FB6100233B6204237B62102357
:1026F000BB624023FB624FF4C0733B6300237B63E8
:102700004FF40063BB630023FB634FF400533B644F
:102710003B467B6407F11C0318460AF0EDFF00F00E
:1027200005F800BF4837BD4680BD00BF80B586B004
:1027300000AF00237B6101237B600823BB60012382
:10274000FB6000233B6100BF202101200BF0B4F8A7
:102750000346002BF8D13B1D18460BF07BF80A20EE
:1027600000F05CF802237B600823BB600123FB6060
:1027700000233B6100BF202101200BF09DF80346A0
:10278000002BF8D13B1D18460BF064F803237B6047
:102790000823BB600423FB6000233B6100BF2021B2
:1027A00001200BF089F80346002BF8D13B1D184699
:1027B0000BF050F800BF202101200BF07DF80346FC
:1027C000002BF8D13B1D18460BF044F840F23123A2
:1027D0007B6104237B600823BB600123FB607B6972
:1027E0003B6100BF202101200BF066F80346002B5F
:1027F000F8D13B1D18460BF02DF840F2AB200BF042
:1028000049F800BF202101200BF056F80346002BA9
:10281000F8D100BF1837BD4680BD00BF80B485B079
:1028200000AF78600023FB607B68084A02FB03F37B
:10283000FB6002E0FB68013BFB60FB68002BF9D109
:1028400000BF1437BD4680BC704700BFA0860100A2
:1028500080B582B002AF194B01221A70184B0022CA
:102860001A60184B00221A60174B00221A70164B80
:1028700000225A70144B00229A70134B0022DA7017
:10288000114B00221A71114B00229A700F4B00223B
:102890001A700E4B00225A700C4B00229A800B4B80
:1028A0000022DA800A4B00930A4B0B4A00210B48A6
:1028B00009F0B4FB00BFBD4680BD00BFBC080020CE
:1028C000605C0020AC0800203C5D0020B4080020C3
:1028D000540600203C050020F0620020445D0020EA
:1028E00080B500AF154B1B78042B03D01449154855
:1028F00009F0EEFB114B1B78022B03D00F4B1B781A
:10290000032B0DD1104B1B6801330F4A13600E4B84
:102910001B680E4A934206D9084B04221A7002E043
:10292000094B00221A60054B1B78062B02D1084B7D
:1029300001221A60014B1B78184680BDBC0800209C
:10294000F0620020445D0020A806002020A10700BE
:10295000605C002080B483B000AF0023FB710C4B9F
:102960001B78082B0DD10023FB710A4B1B78002B21
:1029700001D00123FB71074B5B78002B01D00223B0
:10298000FB71FB7918460C37BD4680BC704700BF11
:10299000BC0800203C5D002080B500AF01214FF451
:1029A000000003F023FE00214FF4000003F01EFEA0
:1029B00000BF80BD80B487B000AF786000237B612A
:1029C00000233B610023FB600023BB604F4A4F4B59
:1029D0001B6823F0031323F4F85313604B494B4B4C
:1029E0001A687B681B6813430B60484A474B5B6B54
:1029F00023F0070353634549444B5A6B7B685B687C
:102A000013434B637B685B68002B0CD17B68DB68EE
:102A10001B027B617B681B691B043B617B685B69F4
:102A20001B06FB603AE07B685B68012B0AD17B6880
:102A3000DB681B027B617B681B691B043B61002315
:102A4000FB602BE07B685B68022B0AD17B68DB684C
:102A50005B017B617B681B69DB023B610023FB60E0
:102A60001CE07B685B68032B0CD17B68DB685B0137
:102A70007B617B681B699B023B617B685B69DB0355
:102A8000FB600BE07B68DB681B017B617B681B697B
:102A90001B023B617B685B691B03FB601B481B4B94
:102AA0009A6B79693B6919437B689B681943FB689A
:102AB0000B4313438363154A7B689B69D363134AB3
:102AC000124B1B6C23F47F5323F03F0313640F4915
:102AD0000E4B1A6C7B68DB6913430B647B685B6A83
:102AE0001B04BB60094A094B5B6C03F04043536411
:102AF0000648064B5A6C7B68196ABB680B43134344
:102B0000436400BF1C37BD4680BC704700B0024024
:102B100080B400AF044A044B1B6843F00103136008
:102B200000BFBD4680BC704700B0024080B485B095
:102B300000AF78600023FB73084B5A687B68134032
:102B4000002B02D00123FB7301E00023FB73FB7B0E
:102B500018461437BD4680BC704700BF00B0024025
:102B600080B586B000AFF860B9607A6000237B6101
:102B700000233B610DF00CFE0246404B1340002B3E
:102B800003DA013B63F0030301333B613B69002B34
:102B900018D17B68032B15D03948BA68F9681346F9
:102BA0005B001344DB004FF43A7202FB01F2134462
:102BB00003440C331B6803F00103002B55D00123A1
:102BC0007B6152E03B69012B18D17B68042B15D047
:102BD0002B48BA68F96813465B001344DB004FF4D6
:102BE0003A7202FB01F2134403440C331B6803F0F6
:102BF0000203002B39D002237B6136E03B69022BB4
:102C000018D17B68012B15D01D48BA68F9681346A6
:102C10005B001344DB004FF43A7202FB01F21344F1
:102C200003440C331B6803F00403002B1DD0032363
:102C30007B611AE03B69032B17D17B68022B14D010
:102C40000F48BA68F96813465B001344DB004FF481
:102C50003A7202FB01F2134403440C331B6803F085
:102C60000803002B01D004237B617B69002B81D0FA
:102C70007B6918461837BD4680BD00BF0300008041
:102C8000AC09002080B58AB002AFF860B9607A6004
:102C90000023FB61094B5B68BB61084B9B687B6150
:102CA0007B6800937B69BA69B968F86800F0AAF993
:102CB000F861FB6918462037BD4680BD785B00206F
:102CC00080B58AB002AFF860B9607A6000233B61DA
:102CD00000237B61344B5B68FB61334B9B68BB61BA
:102CE000314BDB69002B17D12F4BDB68012B01D156
:102CF00001237B612C4BDB68032B01D102237B6119
:102D0000294BDB68052B01D103237B61264BDB6854
:102D1000072B01D104237B61234BDB69012B02D0FC
:102D20007B69012B08D1BB69043BBB61BB69002BEC
:102D30002ADA0023BB6127E01B4BDB69022B02D0A0
:102D40007B69022B08D1FB690433FB61FB691B2BF8
:102D50001ADD1B23FB6117E0134BDB69032B02D049
:102D60007B69032B08D1BB690433BB61BB691E2B94
:102D70000ADD1E23FB6107E0FB69043BFB61FB6985
:102D8000002B01DA0023FB61FA69B9697B680093C3
:102D90000B46B968F86800F035F938613B691846A8
:102DA0002037BD4680BD00BF785B002080B58EB067
:102DB00002AFF860B9607A6000233B6200237B6257
:102DC0003F4B5B68FB623E4B9B68BB623C4BDB69E5
:102DD000002B17D13A4BDB68012B01D101237B6219
:102DE000374BDB68032B01D102237B62344BDB685A
:102DF000052B01D103237B62314BDB68072B01D10B
:102E000004237B622E4BDB69012B02D07B6A012BF2
:102E100003D1BB6A023BBB6218E0294BDB69022B82
:102E200002D07B6A022B03D1FB6A0233FB620DE006
:102E3000234BDB69032B02D07B6A032B03D1BB6AD4
:102E40000233BB6202E0FB6A023BFB621D4B9B68E4
:102E5000FB611C4BDB68BB61FA6AFB69D31A7B61BF
:102E6000BA6ABB69D31A3B61FA6A7B691344FB6295
:102E7000BA6A3B691344BB62FB6A002B01DA002388
:102E8000FB62FB6A1B2B01DD1B23FB62BB6A002B71
:102E900001DA0023BB62BB6A1E2B01DD1E23FB622D
:102EA000FA6AB96A7B6800930B46B968F86800F063
:102EB000A9F838623B6A18463037BD4680BD00BF6E
:102EC000785B0020645C002080B58AB002AFF860B7
:102ED000B9607A603B600023FB61144BBB61144B0B
:102EE0005B687B61124B9B683B617B68BA683969A0
:102EF000786900F04BF9B861BB69B3F5487F09D92F
:102F00003B6800933B697A697968B86800F07AF8A1
:102F1000F86106E03B687A68B968F86800F03EF846
:102F2000F861FB6918462037BD4680BD9F860100C9
:102F3000785B002080B58AB002AFF860B9607A6033
:102F40003B6000237B61FB68002B04D10E23FB61F7
:102F50000E23BB6113E0FB68012B04D10E23FB6140
:102F60000E23BB610BE0FB68022B04D10C23FB6139
:102F70000E23BB6103E01023FB610E23BB613B68A2
:102F80000093BB69FA697968B86800F03BF878612A
:102F90007B6918462037BD4680BD00BF80B58AB02A
:102FA00002AFF860B9607A603B6000237B61FB6828
:102FB000002B04D11B23FB610023BB6113E0FB68E2
:102FC000012B04D10023FB610023BB610BE0FB68F4
:102FD000022B04D11B23FB611E23BB6103E00023F2
:102FE000FB611E23BB613B680093BB69FA6979688A
:102FF000B86800F007F878617B6918462037BD464D
:1030000080BD00BF80B58CB000AFF860B9607A6059
:103010003B600023FB625B4BBB625A4B7B62594BAC
:103020003B62584BFB615848BA68F96813465B002D
:103030001344DB004FF43A7202FB01F213440344E1
:103040000C331B6803F00103002B0ED0BB6B032B6A
:103050000BD0FB687B61BB68013B3B613B697A69D4
:103060003968786800F092F8B8624748BA68F96839
:1030700013465B001344DB004FF43A7202FB01F28B
:10308000134403440C331B6803F00203002B0ED0DF
:10309000BB6B042B0BD0FB6801337B61BB683B61CE
:1030A0003B697A693968786800F070F87862364868
:1030B000BA68F96813465B001344DB004FF43A72B8
:1030C00002FB01F2134403440C331B6803F00403B6
:1030D000002B0ED0BB6B012B0BD0FB687B61BB6858
:1030E00001333B613B697A693968786800F04EF8D2
:1030F00038622548BA68F96813465B001344DB0060
:103100004FF43A7202FB01F2134403440C331B6880
:1031100003F00803002B0ED0BB6B022B0BD0FB6817
:10312000013B7B61BB683B613B697A6939687868C0
:1031300000F02CF8F861134BBB61BA6ABB699A4284
:1031400003D2BB6ABB610123FB62FA69BB699A4285
:1031500003D2FB69BB610423FB623A6ABB699A42F2
:1031600003D23B6ABB610323FB627A6ABB699A4262
:1031700003D27B6ABB610223FB62FB6A18463037CD
:10318000BD4680BD9F860100AC09002080B588B097
:1031900000AFF860B9607A603B600023FB61FA68B9
:1031A0007B68D31ABB61BB69002BB8BF5B42BB61B4
:1031B000BA683B68D31A7B617B69002BB8BF5B425E
:1031C0007B61BB69642202FB03F3BB617B69642200
:1031D00002FB03F37B61BB69002B02D07B69002BF0
:1031E00017D1BB69002B06D17B69002B03D10023CB
:1031F000FB61FB691FE0BB69002B03D17B69FB61AD
:10320000FB6918E07B69002B03D1BB69FB61FB699B
:1032100011E0BB69BA6902FB03F3BB617B697A69A0
:1032200002FB03F37B61BA697B691344184600F023
:1032300007F8F861FB6918462037BD4680BD00BF1E
:1032400080B487B000AF78600023FB6001237B610E
:1032500003233B6106E07A693B6913447B613B6968
:1032600002333B617A697B689A42F4D93B695B0817
:10327000013BFB60FB6818461C37BD4680BC7047AD
:1032800080B582B000AF2B4B1B78002B4ED10121B3
:103290004FF4000003F06EF9274B9B68012118469C
:1032A00003F02CF9244B9B690121184603F026F901
:1032B00001214FF4000003F0B7F900214FF40000A2
:1032C00003F0B2F91C4B18681B4B1B7B9BB204220A
:1032D000194609F009FC184B1869174B1B7F9BB264
:1032E0000422194609F000FC02233B7102237B7182
:1032F0000123BB710023FB710F4B9B883B600E4B7E
:103300001B683A461146184609F044FB0A4B9B8A53
:103310003B60094B1B693A461146184609F03AFBD7
:1033200000F0D2F9034B01221A7000E000BF083709
:10333000BD4680BDAC0600200000002080B584B0F2
:1033400000AF03460A46FB711346BB7100237B8125
:103350004FF44053FB60012170480BF055FA4FF4D5
:103360004053FB600CE0FB68002B03D0FB68013B83
:10337000FB6005E04FF0FF3000F0CAF90346C9E0FA
:10338000674966480BF0FEFA0346002BEBD000219C
:1033900062480BF097FAFB79002219465F480BF060
:1033A00073FA4FF44053FB600CE0FB68002B03D032
:1033B000FB68013BFB6005E06FF0010000F0A8F93D
:1033C0000346A7E0574955480BF0DCFA0346002BAB
:1033D000EBD0524B1B8B4FF44053FB600CE0FB686F
:1033E000002B03D0FB68013BFB6005E06FF002009F
:1033F00000F08EF903468DE04B4948480BF0C2FAC5
:103400000346002BEBD0BB79194644480BF09CFADD
:103410004FF44053FB600CE0FB68002B03D0FB68CB
:10342000013BFB6005E06FF0030000F071F903461B
:1034300070E03D4939480BF0A5FA0346002BEBD06C
:103440003A4936480BF09EFA0346002BE4D001219E
:1034500032480BF0D9F94FF44053FB600CE0FB68A5
:10346000002B03D0FB68013BFB6005E06FF004001C
:1034700000F04EF903464DE0294928480BF082FA46
:103480000346002BEBD0FB790122194623480BF0B1
:10349000FBF94FF44053FB600CE0FB68002B03D0BA
:1034A000FB68013BFB6005E06FF0050000F030F9C0
:1034B00003462FE01B4919480BF064FA0346002B22
:1034C000EBD0164B1B8B4FF44053FB600CE0FB68BA
:1034D000002B03D0FB68013BFB6005E06FF00600AA
:1034E00000F016F9034615E011490C480BF04AFAB2
:1034F0000346002BEBD0012108480BF0A5F9074843
:103500000BF032FA03467B81012104480BF0DAF913
:10351000B7F90A3018461037BD4680BD005C004040
:1035200001000010020000108000001004000010D4
:103530004000001080B584B000AF0346FB710B461D
:10354000BB7113467B7100237B814FF44053FB60BA
:10355000012150480BF058F94FF44053FB600CE048
:10356000FB68002B03D0FB68013BFB6005E04FF0DC
:10357000FF3000F0CDF8034687E0474945480BF09F
:1035800001FA0346002BEBD0FB7900221946414893
:103590000BF07AF94FF44053FB600CE0FB68002B12
:1035A00003D0FB68013BFB6005E06FF0010000F019
:1035B000AFF8034669E0394936480BF0E3F90346B2
:1035C000002BEBD0334B1B8B4FF44053FB600CE0D4
:1035D000FB68002B03D0FB68013BFB6005E06FF04C
:1035E000020000F095F803464FE02D4929480BF002
:1035F000C9F90346002BEBD0BB79194625480BF0DF
:10360000A3F94FF44053FB600CE0FB68002B03D0A0
:10361000FB68013BFB6005E06FF0030000F078F809
:10362000034632E01E491B480BF0ACF90346002B61
:10363000EBD07B79194617480BF086F94FF44053CD
:10364000FB600CE0FB68002B03D0FB68013BFB60D8
:1036500005E06FF0040000F05BF8034615E0104948
:103660000C480BF08FF90346002BEBD00D490948AD
:103670000BF088F90346002BE4D0012105480BF03C
:10368000E3F800237B81B7F90A3018461037BD46AE
:1036900080BD00BF005C004001000010020000106F
:1036A000800000100400001080B483B000AF786088
:1036B00000BF7B685A1E7A60002BFAD100BF0C371E
:1036C000BD4680BC704700BF80B584B000AF00230A
:1036D000BB804BF6FF73FB8000233B814FF480637C
:1036E0007B814FF48043BB81074B3B60012107483E
:1036F0000BF06AF83B46194604480AF0A3FF00BFE6
:103700001037BD4680BD00BFA0860100005C0040B0
:1037100080B584B000AF0346FB80FB88FB810121AC
:103720000A480BF091F8012108480BF0EBF8002152
:1037300006480BF0E7F805480AF04AFFFFF7C4FF18
:10374000B7F90E3018461037BD4680BD005C00400A
:1037500080B582B000AF7860084611461A4603462D
:10376000FB700B46BB7013467B70F978FB787A6868
:1037700003F531735B0013449B88DBB203F07F03D6
:10378000D8B27A684B01134403F2AD3302461A7083
:10379000F978FB787A6803F531735B0013449B88F2
:1037A00003F08003002B14BF01230023DBB2184673
:1037B0007A684B01134403F2AE3302461A70FB7869
:1037C0007A685B01134403F56B73BA781A70FB785F
:1037D0007A685B01134403F2B1333A7C1A70FB78C8
:1037E0007A685B01134403F2B233BA8A1A80FB7819
:1037F0007A685B01134403F2AF337A781A70FB786E
:103800007A681E335B011344043300221A70FB787C
:103810007A681E335B011344053300221A707B78EB
:10382000002B07D1FB787A685B01134403F56C73B6
:1038300001221A70FB7819467868FEF795FA002382
:1038400018460837BD4680BD80B582B000AF7860AD
:10385000084611461A460346FB700B46BB701346DA
:103860007B70BB78002B07D0FB787A685B01134430
:1038700003F56B73BA781A70FB787A685B011344AE
:1038800003F2B2331B88BA8A9A420AD0BB8A002B51
:1038900007D0FB787A685B01134403F2B233BA8A2B
:1038A0001A80FB787A685B01134403F2AF331B780C
:1038B0007A789A420AD07B78002B07D0FB787A6816
:1038C0005B01134403F2AF337A781A70FB78194620
:1038D0007868FEF749FA002318460837BD4680BDD0
:1038E00080B584B000AF78600B46FB70786800F05C
:1038F0005BF80346FB81FB894FF6FF7293420ED0C3
:10390000F989FB789BB26FEA43436FEA534398B25D
:103910007A6801F531735B00134402469A80FB8993
:10392000DBB218461037BD4680BD00BF80B483B0FF
:1039300000AF78600B46FB70FB78072B11D8F97845
:10394000FB787A6803F531735B0013449B88C3F3FB
:103950000E0398B27A6801F531735B001344024696
:103960009A80002318460C37BD4680BC704700BFC4
:1039700080B485B000AF78600223FB730AE0FB7B64
:103980007A6803F531735B00134400229A80FB7B55
:103990000133FB73FB7B072BF1D900231846143747
:1039A000BD4680BC704700BF80B485B000AF786072
:1039B0000023FB730023FB730FE0FB7B7A6803F5A6
:1039C00031735B0013449B881BB2002B02DBFB7B33
:1039D0009BB207E0FB7B0133FB73FB7B072BECD92E
:1039E0004FF6FF7318461437BD4680BC704700BFC2
:1039F00080B58AB000AF7860396000237B62002315
:103A00003B620023FB610023BB617B681B8A9BB286
:103A10007B627B6A23F440537B623B68DB881A46F7
:103A20007B6A13437B627B6A9AB27B681A827B68EB
:103A30009B899BB27B627B6A23F4B05323F00C0317
:103A40007B623B689A883B681B8913439AB23B6848
:103A50005B8913439BB21A467B6A13437B627B6A82
:103A60009AB27B689A817B689B8A9BB27B627B6AF5
:103A700023F440737B623B689B891A467B6A13433D
:103A80007B627B6A9AB27B689A8207F108031846C8
:103A900002F06CFC7B68304A934203D07B682F4A6B
:103AA000934202D17B693B6201E03B693B627B68E8
:103AB0009B899BB21BB2002B0CDA3A6A13469B001F
:103AC00013449A001A443B681B685B00B2FBF3F393
:103AD000FB610BE03A6A13469B0013449A001A44B8
:103AE0003B681B689B00B2FBF3F3FB61FB691C4A5C
:103AF000A2FB03235B091B017B627B6A1B09642217
:103B000002FB03F3FA69D31ABB617B689B899BB202
:103B10001BB2002B0CDABB69DB003233104AA2FB6C
:103B200003235B0903F007037A6A13437B620BE00C
:103B3000BB691B0132330A4AA2FB03235B0903F072
:103B40000F037A6A13437B627B6A9AB27B681A819D
:103B500000BF2837BD4680BD001001400014014061
:103B60001F85EB5180B483B000AF78600B46FB70CB
:103B7000FB78002B08D07B689B899BB243F40053F1
:103B80009AB27B689A8107E07B689B899BB223F499
:103B900000539AB27B689A8100BF0C37BD4680BC47
:103BA000704700BF80B483B000AF78600B46FB70F5
:103BB000FB78002B0AD07B689B899BB26FEA43435A
:103BC0006FEA53439AB27B689A8107E07B689B89CE
:103BD0009BB2C3F30E039AB27B689A8100BF0C3785
:103BE000BD4680BC704700BF80B483B000AF786032
:103BF0007B689B889BB2C3F308039BB218460C37C3
:103C0000BD4680BC704700BF80B487B000AF78600D
:103C10000B467B8013467B7000233B610023FB60D7
:103C20000023BB6000237B617B687B617B88DBB208
:103C30005B09DBB23B617B8803F01F03FB60012261
:103C4000FB6802FA03F3BB603B69012B03D17B697C
:103C50000C337B6109E03B69022B03D17B69103394
:103C60007B6102E07B6914337B617B78002B06D09B
:103C70007B697A691168BA680A431A6006E07B6951
:103C80007A691168BA68D2430A401A6000BF1C37CB
:103C9000BD4680BC704700BF80B487B000AF78607D
:103CA0000B467B800023FB6000237B610023BB600D
:103CB0000023FB747B88DBB25B09DBB2BB607B88D3
:103CC00003F01F037B6101227B6902FA03F37B612E
:103CD000BB68012B07D17B689B899BB21A467B6925
:103CE00013407B6111E0BB68022B07D17B681B8A04
:103CF0009BB21A467B6913407B6106E07B689B8A16
:103D00009BB21A467B6913407B617B881B0A9BB27E
:103D1000FB600122FB6802FA03F3FB607B681B88EF
:103D20009BB21A46FB681340FB607B69002B05D0F1
:103D3000FB68002B02D00123FB7401E00023FB741D
:103D4000FB7C18461C37BD4680BC704780B588B0E8
:103D500002AFF860B9601346FB71FB6803F5887326
:103D6000FA7992B2019200934FF480730022B968FD
:103D7000F86800F085F80346FB75FB7D002B0AD13F
:103D8000BB6803F12200FB6803F58873FA7992B2ED
:103D9000194600F029F9FB7D18461837BD4680BD4D
:103DA00090B589B002AFF860B9601346FB8000237C
:103DB000FB82FB6803F58873FA88019200934FF445
:103DC00000730022B968F86800F05AF803467B7562
:103DD0007B7D002B20D10AE0FB8AFA8AF9680A442D
:103DE00092F810110F4AD154FB8A0133FB82FA8AF0
:103DF000FB889A42F0D3BB6803F13400BB6803F13F
:103E00003E01BB6803F15002FB6803F58874FB8830
:103E10000093234600F058F97B7D18461C37BD46B9
:103E200090BD00BF7463002080B588B002AFF86019
:103E3000B9603B601346FB71FB799BB243F440735E
:103E400099B2FB6803F588733A8C019200930B4694
:103E50000022B968F86800F013F80346FB75FB7D93
:103E6000002B07D1FB6803F588733A8C3968184634
:103E700000F066FAFB7D18461837BD4680BD00BFCE
:103E800080B584B000AFF860B96011461A460B46A1
:103E9000FB711346BB80FB7963F07F03DAB2BB682A
:103EA0001A75BB6806225A75BB68BA88DA82BB8865
:103EB00003F47F43B3F5407F04D1BB6840F209426D
:103EC0001A8302E0BB6800221A83BB68BA8B5A834C
:103ED000BB8BBA69B968F8680AF086FD03461846D4
:103EE0001037BD4680BD00BF80B584B000AFF8601C
:103EF000B9601346FB71BB6800221A75BB680522C6
:103F00005A75FB799AB2BB68DA82BB6800221A83C1
:103F1000BB6800225A8300230022B968F8680AF0BF
:103F200063FD034618461037BD4680BD80B584B09A
:103F300000AFF860B9601346FB80BB6800221A75B9
:103F4000BB6809225A75BB68FA88DA82BB6800220E
:103F50001A83BB6800225A8300230022B968F868DC
:103F60000AF042FD034618461037BD4680BD00BF2B
:103F700080B584B000AFF860B96011461A460B46B0
:103F8000FB711346BB71BB6802221A75BB68012224
:103F90005A75BB680022DA82FB799AB2BB681A8331
:103FA000BB6800225A8397F90730002B08DABB79E7
:103FB000FA681E335B011344043300221A7007E0D1
:103FC000BB79FA681E335B011344053300221A7073
:103FD00000230022B968F8680AF006FD0346184677
:103FE0001037BD4680BD00BF80B485B000AFF8601B
:103FF000B9601346FB80BB681A78FB681A70BB680F
:104000005A78FB685A70BB6802331B789AB2BB6857
:1040100003331B789BB21B029BB213449AB2FB681A
:104020005A80BB681A79FB681A71BB685A79FB68B9
:104030005A71BB689A79FB689A71BB68DA79FB6838
:10404000DA71FB88082B39D9BB6808331B789AB220
:10405000BB6809331B789BB21B029BB213449AB214
:10406000FB681A81BB680A331B789AB2BB680B33B2
:104070001B789BB21B029BB213449AB2FB685A8115
:10408000BB680C331B789AB2BB680D331B789BB2AC
:104090001B029BB213449AB2FB689A81BB689A7B5D
:1040A000FB689A73BB68DA7BFB68DA73BB681A7CBF
:1040B000FB681A74BB685A7CFB685A7400BF1437DB
:1040C000BD4680BC704700BF80B58CB000AFF860C3
:1040D000B9607A603B603B68FB62002387F82A3056
:1040E000002387F82B303B68FB623B681A78FB683B
:1040F0001A703B685A78FB685A703B6802331B7829
:104100009AB23B6803331B789BB21B029BB21344E9
:104110009AB2FB685A803B681A79FB681A713B684F
:104120005A79FB685A713B689A79FB689A713B68C7
:10413000DA79FB68DA713B681A7AFB681A723B8F8E
:10414000092B40F29A8009237B82FB681B79022BA2
:1041500000F28D8000237B6283E007F11203194691
:10416000F86A00F01FF9F862FB6A5B78042B78D1DB
:10417000FB6A02331B7887F82A3097F92A20134606
:10418000DB001344BA6813447B62FB6A03331B7879
:10419000022B66D807F11403F96A184600F076F886
:1041A000002387F82B303B7E022B5AD854E007F1CE
:1041B00012031946F86A00F0F5F8F862FB6A5B78BA
:1041C000052B49D197F92A301B017A681A4497F9CF
:1041D0002B30DB0013443B622A4B1B781A4697F9BD
:1041E0002A309A420AD097F82A20264B1A7007F1F3
:1041F00014031946786A00F049F814E0224B1B8832
:104200001A46FB6A04331B781946FB6A05331B7890
:104210001B020B449A4200DD23E007F11403194608
:10422000786A00F033F8F96A386A00F05DF8FB6AE2
:1042300004331B789AB2FB6A05331B789BB21B02CE
:104240009BB213449AB2104B1A8097F92B30DBB211
:104250000133DBB287F82B3097F92B303A7E93424B
:10426000A5DBFB685A887B8A9A423FF676AF064BFD
:1042700000221A80034B00221A7000BF3037BD465F
:1042800080BD00BFAE060020B006002080B483B021
:1042900000AF786039603B681A787B681A703B68B9
:1042A0005A787B685A703B689A787B689A703B684A
:1042B000DA787B68DA703B681A797B681A713B6838
:1042C0005A797B685A713B689A797B689A713B6826
:1042D000DA797B68DA713B681A7A7B681A7200BFF8
:1042E0000C37BD4680BC704780B483B000AF7860A7
:1042F00039603B681A787B681A703B685A787B682B
:104300005A703B689A787B689A703B68DA787B6869
:10431000DA703B6804331B789AB23B6805331B782C
:104320009BB21B029BB213449AB27B689A803B6893
:104330009A797B689A7100BF0C37BD4680BC704784
:1043400080B487B000AFF860B9601346FB80FB68AB
:1043500001331B78032B20D1FB681B789A1EFB8846
:104360009342A8BF1346BB82FB680233FB60002365
:10437000FB820BE0FB8AFA6813441A78BB681A7058
:10438000BB680133BB60FB8A0233FB82FA8ABB8ABB
:104390009A42EFD3BB6800221A7000BF1C37BD469B
:1043A00080BC704780B485B000AF786039603B68EE
:1043B0001A887B681B789BB213449AB23B681A80B8
:1043C0007B681B781A467B681344FB60FB681846C1
:1043D0001437BD4680BC704780B500AF00F008F8C8
:1043E00000F034F900F086F900F0D6FA00BF80BD85
:1043F00080B483B000AF00237B600DE0924A7B68FD
:10440000002142F83310904A7B68DB0013440022FD
:104410005A607B6801337B607B68272BEED98A4B1F
:1044200002221A60884B02225A60874B0A229A6045
:10443000854B0222DA60844B12221A61824B0222DF
:104440005A61814B1A229A617F4B0222DA617E4BBC
:1044500012221A627C4B0A225A627B4B1A229A62FF
:10446000794B1222DA62784B1A221A63764B0A22AF
:104470005A63754B12229A63734B1222DA63724BA2
:104480000A221A64704B0A225A646F4B0A229A64F9
:104490006D4B1222DA646C4B02221A656A4B1222AF
:1044A0005A65694B02229A65674B0A22DA65664BA8
:1044B0002A221A66644B0A225A66634B2A229A669B
:1044C000614B1222DA66604B22221A675E4B12227F
:1044D0005A675D4B22229A675B4B0A22DA675A4B76
:1044E0002222C3F88020584B1A22C3F88420564B4E
:1044F0002A22C3F88820544B1A22C3F88C20524B2E
:104500003222C3F8A020504B1A22C3F8A4204E4BED
:104510003222C3F8A8204C4B2222C3F8AC204A4BCD
:104520003A22C3F8B020484B1A22C3F8B420464BB5
:104530003A22C3F8B820444B2222C3F8BC20424B95
:104540001A22C3F8C020404B1A22C3F8C4203E4BA5
:104550001222C3F8C8203C4B2222C3F8CC203A4B8D
:104560001222C3F8D020384B1A22C3F8D420364B7D
:104570001A22C3F8D820344B2222C3F8DC20324B55
:104580000A22C3F8E020304B1A22C3F8E4202E4B55
:104590000A22C3F8E8202C4B2222C3F8EC202A4B35
:1045A0000222C3F8F020284B2222C3F8F420264B25
:1045B0000222C3F8F820244B1A22C3F8FC20224B15
:1045C0003A22C3F80021204B0A22C3F804211E4BD3
:1045D0003A22C3F808211C4B1222C3F80C211A4BB3
:1045E0003222C3F81021184B1222C3F81421164BA3
:1045F0003222C3F81821144B0A22C3F81C21124B93
:104600004222C3F82021104B0A22C3F824210E4B6A
:104610000222C3F828210C4B2A22C3F82C210A4B72
:104620000A22C3F83021084B2A22C3F83421064B52
:104630001222C3F83821044B2A22C3F83C2100BFC0
:104640000C37BD4680BC70476407002080B483B03F
:1046500000AF00237B600DE0254A7B68002142F813
:104660003310234A7B68DB00134400225A607B68C6
:1046700001337B607B68082BEED91D4B02221A6048
:104680001B4B36225A601A4B10229A60184B362266
:10469000DA60174B1E221A61154B36225A61144BF1
:1046A0002C229A61124B3622DA61114B3A221A629D
:1046B0000F4B36225A620E4B48229A620C4B36221E
:1046C000DA620B4B56221A63094B36225A63084BA7
:1046D00064229A63064B3622DA63054B72221A640F
:1046E000034B36225A6400BF0C37BD4680BC70476E
:1046F0006409002080B483B000AF00237B602EE00B
:104700009B4A7B68002142F83310994A7B68DB00A2
:10471000134400225A60974A7B68002142F8331004
:10472000944A7B68DB00134400225A60924A7B68FB
:10473000002142F83310904A7B68DB0013440022CA
:104740005A608E4A7B68002142F833108B4A7B689E
:10475000DB00134400225A607B6801337B607B6876
:104760000A2BCDD9824B02221A61814B44225A6115
:104770007F4B10229A617E4B4422DA617C4B1E22D1
:104780001A637B4B44225A63794B2C229A63784BF1
:104790004422DA63764B3A221A60754B44225A60FF
:1047A000734B48229A60724B4422DA60704B562257
:1047B0001A626F4B44225A626D4B64229A626C4BB0
:1047C0004422DA626A4B73221A64694B45225A64A6
:1047D000674B73229A64664B5322DA64644B7322EC
:1047E0001A65634B62225A65624B02221A61614B61
:1047F00052225A615F4B10229A615E4B5222DA615B
:104800005C4B1E221A635B4B52225A63594B2C227B
:104810009A63584B5222DA63564B3A221A60554B30
:1048200052225A60534B48229A60524B5222DA600D
:10483000504B56221A624F4B52225A624D4B642201
:104840009A624C4B5222DA624A4B73221A64494BE9
:1048500045225A64474B73229A64464B5322DA64CA
:10486000444B73221A65434B62225A65424B022223
:104870001A61414B60225A613F4B10229A613E4BB4
:104880006022DA613C4B1E221A633B4B60225A6362
:10489000394B2C229A63384B6022DA63364B3A222A
:1048A0001A60354B60225A60334B48229A60324B73
:1048B0006022DA60304B56221A622F4B60225A6215
:1048C0002D4B64229A622C4B6022DA622A4B7322AF
:1048D0001A64294B45225A64274B73229A64264B4B
:1048E0005322DA64244B73221A65234B62225A65E1
:1048F000224B02221A61214B6E225A611F4B102259
:104900009A611E4B6E22DA611C4B1E221A631B4BEE
:104910006E225A63194B2C229A63184B6E22DA636B
:10492000164B3A221A60154B6E225A60134B4822DE
:104930009A60124B6E22DA60104B56221A620F4BAD
:104940006E225A620D4B64229A620C4B6E22DA621E
:104950000A4B73221A64094B45225A64074B73228F
:104960009A64064B5322DA64044B732208E000BFBA
:10497000E05C002004070020C8080020185B00202D
:104980001A65044B62225A6500BF0C37BD4680BCD5
:10499000704700BF185B002080B483B000AF0023D5
:1049A0007B600DE0104A7B68002142F833100E4A0C
:1049B0007B68DB00134400225A607B6801337B6014
:1049C0007B68012BEED9084B53221A60064B02225A
:1049D0005A60054B53229A60034B1A22DA6000BFDB
:1049E0000C37BD4680BC70474809002080B586B0B2
:1049F00002AF7E4B0022DA617C4B01221A62032057
:104A000000F02EF900F00CF9F860794801F074FC20
:104A1000FB68002B0ED0002006F0CEFE0023019391
:104A20001F230093734B744A4FF48C710A2008F0D3
:104A300049F9FEE7032001F06DFE0320FBF7B6FB0A
:104A4000032005F0B1FF0320FCF73CF8032008F039
:104A50006FFF06F043FC654BDB69002B01D1FFF7CC
:104A6000BBFC00F021F905F0ADFA04F0F5FCF860AC
:104A7000FB68002B40F0978000F02CFD00F01CFD3F
:104A80005E4B03221A605D4B03225A60002001F046
:104A90004DFA002301934FF6E0730093554B584AAB
:104AA00040F231110A2008F00DF94FF47A7002F04B
:104AB0005DFC002301934FF6E07300934D4B514A88
:104AC00040F231110A2008F0FDF84FF47A7002F03C
:104AD0004DFC002301934FF6E0730093454B4A4A87
:104AE00040F231110A2008F0EDF84FF47A7002F02C
:104AF0003DFC002301934FF6E07300933D4B434A86
:104B000040F231110A2008F0DDF84FF47A7002F01B
:104B10002DFC002301934FF6E0730093354B3C4A84
:104B200040F231110A2008F0CDF800F02DF9F860BC
:104B300041F2883002F01AFCFB68012B05D1354B9D
:104B40005B6A0133334A53620AE0324B1B6B013B11
:104B5000304A13632F4B1B6B002B01D10323FB60E7
:104B6000F86800F07DF8F86801F0D4FDF868FBF70C
:104B70001DFBF86805F018FFF868FBF7A3FFF8685D
:104B800008F0D6FEFB68032B03D106F0A7FB00F06C
:104B90008BF8FB68012B03D0FB68032B7FF46CAF11
:104BA00005F010FA68E700F0E7FC002301931F23EB
:104BB0000093104B184A4FF48C710A2008F082F8C9
:104BC000FA683B461549184602F0F2FE3A460023C1
:104BD00001931F230093074B4FF491710A2008F0B3
:104BE00071F800BF1037BD4680BD00BF240900200A
:104BF000D00701089C050020E8070108580900209B
:104C0000F4070108000801080C0801081808010849
:104C100024080108785B0020300801083C080108DE
:104C200080B582B000AF00237B600AF0BBF803467A
:104C3000012B01D001237B6002F060FBFDF708FE31
:104C400004F052FF04F00CFF06F0FCFC06F036FD09
:104C500000F018FC7B6818460837BD4680BD00BFD1
:104C600080B483B000AF78607B68032B05D10D4B17
:104C700001221A600B4B01225A600A4B00229A60F3
:104C8000084B4622DA60074B00221A61054B3C2292
:104C90005A61044BC8229A6100BF0C37BD4680BCE4
:104CA000704700BF2409002080B400AF304B5B6A1E
:104CB0000A2B40D82E4B5B6A5A1E2E4913469B0086
:104CC00013449B000B441B68294A5363284B5B6ABF
:104CD0005A1E284913469B0013449B000B4404337F
:104CE0001B68254A1363224B5B6A5A1E21491346EF
:104CF0009B0013449B000B4408331B681F4A13633B
:104D00001B4B5B6A5A1E1B4913469B0013449B00B6
:104D10000B440C331B681A4A1363154B5B6A5A1E0B
:104D2000144913469B0013449B000B4410331B682B
:104D3000144A136318E00F4BD3F8B4300C4A536392
:104D40000C4BD3F8B8300C4A13630A4BD3F8BC3081
:104D50000A4A1363074BD3F8C030094A1363054B63
:104D6000D3F8C430074A136300BFBD4680BC704708
:104D7000785B002020000020645C0020A45C002000
:104D8000245C0020E85B002080B584B000AF0023E5
:104D9000FB600023BB6000237B6006F0E3FD834BD8
:104DA0001B68002B0DD1814B32221A60804B5B684F
:104DB000002B03D101F0F4F9B86002E001F05AFAD7
:104DC000B86000237B607B4B1B68002B1AD1784BAB
:104DD0001B69002B04D1784B5B6B764A13600DE0A6
:104DE000754B5A6B744B9B6BD31A3B603B68092B1A
:104DF00001DC0A233B603B686E4A13607B6843F02A
:104E000001037B606D4B1B68002B1BD16C4B1B6837
:104E1000002B10D1664B1B69002B04D1684B1B6B18
:104E2000664A13600AE0664B1A6B654B5B6B134472
:104E3000624A136002E0614B0A221A607B6843F009
:104E400002037B605F4B1B68002B1BD15E4B1B6812
:104E5000002B10D1564B1B69002B04D15A4B1B6BF6
:104E6000584A13600AE0584B1A6B574B5B6B13445C
:104E7000544A136002E0534B0A221A607B6843F0E5
:104E800004037B60514B1B68002B1BD1504B1B68EC
:104E9000002B10D1464B1B69002B04D14C4B1B6BD4
:104EA0004A4A13600AE04A4B1A6B494B5B6B134446
:104EB000464A136002E0454B0A221A607B6843F0C1
:104EC00008037B60434B1B68002B1BD1424B1B68C4
:104ED000002B10D1364B1B69002B04D13E4B1B6BB2
:104EE0003C4A13600AE03C4B1A6B3B4B5B6B134430
:104EF000384A136002E0374B0A221A607B6843F09D
:104F000010037B60354B1B68002B04D1334B6422AC
:104F10001A6000F065F87B68002B01D000F0BEFA43
:104F20007B6803F00103002B04D001F049FCB86852
:104F300002F0A2F87B6803F00203002B01D0FBF71C
:104F400089F97B6803F00403002B01D005F080FD94
:104F50007B6803F00803002B01D0FBF707FE7B689A
:104F600003F01003002B01D008F036FD7B68002B06
:104F700006D000F0A1FAB86800F0D8FF06F016FDE0
:104F80000D4B1B68022B01D10223FB600A4B1B68EF
:104F9000012B01D10123FB60FB68002B3FF4FFAE26
:104FA000FB6818461037BD4680BD00BFB008002022
:104FB00024090020385D0020785B0020705B002011
:104FC000645C0020745B0020A45C0020A408002026
:104FD000245C002060070020E85B002020090020FE
:104FE00080B400AF284B1B69002B39D1264BDB68FE
:104FF000013B254AD360244BDB68002B3FD1234B78
:1050000003221A60204B9B68002B06D11E4B012205
:105010009A601D4BC822DA6005E01B4B00229A60A3
:10502000194B4622DA601A4B1B68002B02D1184B31
:1050300001229A63174B1B68002B02D1154B0122EA
:105040009A63154B1B68002B02D1134B01229A6304
:10505000124B1B68002B12D1104B01229A630EE0F9
:10506000094B5B69013B084A5361074B5B69002BA5
:1050700005D1054B00221A61034BC8229A6100BF7B
:10508000BD4680BC704700BF24090020580900209D
:10509000645C0020A45C0020245C0020E85B00200D
:1050A00080B489B000AF78600023FB610023BB614E
:1050B00000237B6100233B610023FB600023BB6076
:1050C0003F493F4B9A683F4B13408B607B681B699D
:1050D0001B04FB613A483A4B9A687B685969FB6943
:1050E0000B43134383603649354BDA68354B134025
:1050F000CB607B689B691B04BB613148304BDA682D
:105100007B68D969BB690B431343C3602C492C4BA3
:105110001A692C4B13400B617B681B6A1B047B6173
:105120002748274B1A697B68596A7B690B431343ED
:1051300003612349224B5A69224B13404B617B6820
:105140009B6A1B043B611E481D4B5A697B68D96AE8
:105150003B690B43134343611949194B9A691A4B35
:1051600013408B611648164B9A697B6819687B68F7
:105170005B6819437B689B6819437B68DB680B435A
:10518000134383617B685B6B1B02FB607B681B6B5B
:105190001B04BB600A4A0A4BDB6A03F07F43D362FD
:1051A0000748074BDA6AB968FB6819437B689B6B51
:1051B0000B431343C36200BF2437BD4680BC704716
:1051C0000068014000F800F08F88FE0F80B483B0C3
:1051D00000AF0346FB71FB79002B06D0084A084B51
:1051E0009B6943F00103936105E0054A044B9B6909
:1051F00023F00103936100BF0C37BD4680BC7047AC
:105200000068014080B483B000AF0346FB71FB79B6
:10521000002B06D0084A084B9B6943F48033936106
:1052200005E0054A044B9B6923F48033936100BF7A
:105230000C37BD4680BC70470068014080B483B025
:1052400000AF7860034A7B68536200BF0C37BD46ED
:1052500080BC70470068014080B489B000AF7860BE
:1052600039600023FB610023BB6100237B610023C5
:105270003B610023FB600023BB603B685B681B0451
:10528000FB617B685B6803F470427B685A603B6833
:105290001A68FB691A437B685A603B68DB681B0429
:1052A000BB617B689B6803F470427B689A603B68D3
:1052B0009A68BB691A437B689A607B681B6923F014
:1052C00007027B681A613B681A697B681A613B6850
:1052D000DB691B027B613B681B6A1B043B613B680B
:1052E0005B6A1B06FB607B689B697B6800229A6196
:1052F0003B689A697B691A433B691A43FB681A4306
:105300007B689A617B685B6923F0FF027B685A6166
:105310003B685A697B685A617B68DB6923F4E06308
:1053200023F007037A68D3613B689A6A3B68DB6ABB
:105330001A437B68DA617B689B6A7B6800229A6209
:105340003B681A6B7B689A623B689B6B1B04BB6073
:105350007B68DB6A03F0E0227B68DA623B685A6BA9
:10536000BB681A437B68DA627B681B6B23F4FF63BC
:1053700023F007037A6813633B68DA6B7B681A6370
:1053800000BF2437BD4680BC704700BF80B483B0E7
:1053900000AF78600B46FB70FB78002B06D07B6873
:1053A0001B6843F001027B681A6005E07B681B689C
:1053B00023F001027B681A6000BF0C37BD4680BC39
:1053C000704700BF80B483B000AF78600B46FB70BD
:1053D000FA787B685A6100BF0C37BD4680BC7047C5
:1053E00080B582B000AF104B7B60104B3B6007E094
:1053F0003B681A1D3A607A68111D796012681A605C
:105400003B680B4A9342F3D30A480B494FF0000222
:105410008842B8BF40F8042BFADB00F077FF00BFEA
:105420000837BD4680BD00BF74960108000000200B
:10543000A4060020A40600202866002080B400AF47
:10544000FEE700BF80B500AF07F01AFF00BF80BDC8
:1054500080B582B000AF78607B681A78084BDA704C
:105460007B685A78064B1A707B689A78044B5A709E
:10547000034807F031FF00BF0837BD4680BD00BFBD
:105480007465002080B500AF06F084F9FF2006F0B7
:10549000B3F9002006F090F900BF80BD80B500AFE1
:1054A00000F026F900F024FA00F0FEFA00F0D8FB34
:1054B00000F0B2FC00BF80BD80B500AF00F0C6F8C0
:1054C00000F0C4F900F09EFA00F078FB00F052FC06
:1054D00000BF80BD80B586B000AFFFF7D3FF0823C3
:1054E0003B8108237B8100233B613AE000237B6101
:1054F00031E07B6901339BB2DB009BB2BB803B692F
:105500009BB2DB009BB205339BB2FB8018483A6923
:10551000796913465B001344DB004FF43A7202FBD7
:1055200001F21344034410331B68FB60114AFB680B
:1055300052F833309BB23B800E4AFB68DB001344C9
:105540005B689BB27B803B4693E8070005F008F957
:105550007B6901337B617B691B2BCAD93B690133B2
:105560003B613B691E2BC1D900BF1837BD4680BDCA
:10557000AC0900206407002080B586B002AFFFF7B9
:1055800081FF0023BB6057E00023FB604EE0FB6817
:105590000133DB007B60BB68DB0005333B602A48DE
:1055A000BA68F96813465B001344DB004FF43A72A3
:1055B00002FB01F21344034418331B68002B27D16C
:1055C0002148BA68F96813465B001344DB004FF4C6
:1055D0003A7202FB01F21344034404331B68002BAC
:1055E0000AD17B6898B23B6899B21F2300930823C5
:1055F000082205F01FF816E07B6898B23B6899B264
:105600004FF2DE7300930823082205F013F80AE036
:105610007B6898B23B6899B24FF4784300930823B3
:10562000082205F007F8FB680133FB60FB681B2BC1
:10563000ADD9BB680133BB60BB681E2BA4D900BFCA
:105640001037BD4680BD00BFAC09002080B586B0D4
:1056500000AF254B5B687B61234B9B683B61224B12
:105660001B6A002B3BD17B6901339BB2DB009AB2F2
:105670001D4B5B699BB213449BB2033B9BB2BB8047
:105680003B699BB2DB009AB2174B9B699BB21344F8
:105690009BB202339BB2FB80BB88072B01D8082347
:1056A000BB80FB88042B01D80523FB800E233B81A4
:1056B0000E237B810C4BDB68FB600C4AFB6852F8C5
:1056C00033309BB23B80094AFB68DB0013445B68C4
:1056D0009BB27B803B4693E8070005F041F800BF92
:1056E0001837BD4680BD00BF785B002064090020EC
:1056F00080B58AB000AF524B5B687B61504B9B68B2
:105700003B617B699BB2013B9BB2FB837B699BB294
:1057100001339BB2BB833B699BB2013B9BB27B8352
:105720003B699BB201339BB23B83454BDB69012B49
:1057300004D13B699BB202339BB23B83404BDB6994
:10574000022B04D17B699BB2023B9BB2FB833C4B97
:10575000DB69032B04D13B699BB2023B9BB27B8389
:10576000374BDB69042B04D17B699BB202339BB2BC
:10577000BB83B7F91E30002B01DA0023FB83B7F996
:105780001C301B2B01DD1B23BB83B7F91A30002B08
:1057900001DA00237B83B7F918301E2B01DD1E23AD
:1057A0003B8308233B8108237B81B7F91A303B6296
:1057B0003DE0B7F91E307B6231E07B6A01339BB27A
:1057C000DB009BB2BB803B6A9BB2DB009BB2053324
:1057D0009BB2FB801B483A6A796A13465B0013440C
:1057E000DB004FF43A7202FB01F21344034410331E
:1057F0001B68FB60144AFB6852F833309BB23B8055
:10580000114AFB68DB0013445B689BB27B803B461C
:1058100093E8070004F0A4FF7B6A01337B62B7F9C9
:105820001C207B6A9A42C8D23B6A01333B62B7F9BB
:1058300018203B6A9A42BCD200BF2837BD4680BDC3
:10584000785B0020AC0900206407002080B586B09A
:1058500000AF254B9B687B61234BDB683B61224B90
:105860009B6A002B3BD17B6901339BB2DB009AB270
:105870001D4B9B699BB213449BB2033B9BB2BB8005
:105880003B699BB2DB009AB2174BDB699BB21344B6
:105890009BB202339BB2FB80BB88072B01D8082345
:1058A000BB80FB88042B01D80523FB800E233B81A2
:1058B0000E237B810C4B1B69FB600C4AFB6852F882
:1058C00033309BB23B80094AFB68DB0013445B68C2
:1058D0009BB27B803B4693E8070004F041FF00BF8A
:1058E0001837BD4680BD00BF645C0020E05C00202E
:1058F00080B58AB000AF404B9B687B613E4BDB6854
:105900003B617B699BB2013B9BB2FB837B699BB292
:1059100001339BB2BB833B699BB2013B9BB27B8350
:105920003B699BB201339BB23B83B7F91E30002B1E
:1059300001DA0023FB83B7F91C301B2B01DD1B238D
:10594000BB83B7F91A30002B01DA00237B83B7F948
:1059500018301E2B01DD1E233B8308233B810823C7
:105960007B81B7F91A303B623DE0B7F91E307B62AC
:1059700031E07B6A01339BB2DB009BB2BB803B6AA8
:105980009BB2DB009BB205339BB2FB801B483A6A9B
:10599000796A13465B001344DB004FF43A7202FB52
:1059A00001F21344034410331B68FB60144AFB6884
:1059B00052F833309BB23B80114AFB68DB00134442
:1059C0005B689BB27B803B4693E8070004F0C8FE0F
:1059D0007B6A01337B62B7F91C207B6A9A42C8D28A
:1059E0003B6A01333B62B7F918203B6A9A42BCD24A
:1059F00000BF2837BD4680BD645C0020AC09002094
:105A00006407002080B586B000AF254B9B687B61A2
:105A1000234BDB683B61224B9B6A002B3BD17B69AC
:105A200001339BB2DB009AB21D4B9B699BB21344BE
:105A30009BB2033B9BB2BB803B699BB2DB009AB23B
:105A4000174BDB699BB213449BB202339BB2FB80C2
:105A5000BB88072B01D80823BB80FB88042B01D807
:105A60000523FB800E233B810E237B810C4B1B699E
:105A7000FB600C4AFB6852F833309BB23B80094A0A
:105A8000FB68DB0013445B689BB27B803B4693E87A
:105A9000070004F065FE00BF1837BD4680BD00BF9B
:105AA000A45C00200407002080B58AB000AF404B02
:105AB0009B687B613E4BDB683B617B699BB2013B32
:105AC0009BB2FB837B699BB201339BB2BB833B6977
:105AD0009BB2013B9BB27B833B699BB201339BB280
